:020000040800F2
:10000000005000208D0B0008DF0B0008E10B0008FA
:10001000E30B0008E50B0008E70B000800000000F8
:10002000000000000000000000000000E90B0008D4
:10003000EB0B000800000000ED0B0008AD04000809
:10004000DD0B0008DD0B0008DD0B0008DD0B0008F0
:10005000DD0B0008DD0B0008DD0B0008DD0B0008E0
:10006000DD0B0008DD0B0008DD0B0008DD0B0008D0
:10007000DD0B0008DD0B0008DD0B0008DD0B0008C0
:10008000DD0B0008DD0B0008DD0B0008DD0B0008B0
:10009000DD0B0008DD0B0008DD0B0008DD0B0008A0
:1000A000DD0B0008DD0B0008DD0B0008DD0B000890
:1000B000DD0B0008DD0B0008DD0B0008DD0B000880
:1000C000DD0B0008DD0B0008DD0B0008DD0B000870
:1000D000DD0B0008DD090008C10A000895060008CC
:1000E000DD0B0008DD0B0008DD0B00080000000040
:1000F0000000000000000000000000000000000000
:0C01000000000000000000005FF808F1A3
:10010C0010B5054C237833B9044B13B10448AFF345
:10011C0000800123237010BD30000020000000007F
:10012C00500D000808B5034B1BB103490348AFF34E
:10013C00008008BD0000000034000020500D0008B5
:10014C0010B5C2780378E2B1124AD1684278C9433B
:10015C00C1F30221C1F10404A2400F24807824FAD7
:10016C0001F101400A430C491201C818D2B280F8BF
:10017C00002303F01F005A090123834041F8223069
:10018C0010BD01215A0903F01F0301FA03F32032B9
:10019C000149F3E700ED00E000E100E0CB782DE948
:1001AC00F041DA0648BF8A780E8803F00F0548BF85
:1001BC00154316F0FF0F1AD000214FF0010E4FF02F
:1001CC000F0C02680EFA01F737EA06040BD18C000B
:1001DC000CFA04F822EA080205FA04F4282B42EA85
:1001EC00040225D1476101310829EBD10260FF2EB1
:1001FC001CD900214FF0010E4FF00F0C426801F199
:10020C0008040EFA04F434EA06070BD18F000CFA3A
:10021C0007F822EA080205FA07F7282B42EA070238
:10022C000AD1446101310829E9D14260BDE8F0816D
:10023C00482B08BF0761D6E7482B08BF0461F1E7DC
:10024C0001617047416170470028164A30B500F4CF
:10025C004015B4BFD3695368B5F5401F84B210D1B3
:10026C00556823F0706325F07065556019B1420D27
:10027C001201944023430B4A0028B4BFD36153604E
:10028C0030BDC2024DBF0322420D1201C0F3034523
:10029C004CBFAA4004FA02F223EA020343F0706353
:1002AC00E4E700BF000001401C4A10B5536803F09E
:1002BC000C03042B01D0082B1FD0194B036053687F
:1002CC00184CC3F30313E15C0368CB4043605168E3
:1002DC00C1F30221615C23FA01F181605168C1F321
:1002EC00C221615CCB40C36052680F49C2F38132BA
:1002FC008A5CB3FBF2F3036110BD53685168C3F31E
:10030C008343CC0303F1020302D408494B43D5E7E2
:10031C0051688903F9D40249F8E700BF0010024084
:10032C0000127A00040000200000002000093D00AB
:10033C00044B9A6911B110439861704722EA00008E
:10034C00FAE700BF00100240044BDA6911B1104308
:10035C00D861704722EA0000FAE700BF00100240A3
:10036C0030B50D460446038A8A899BB2C98823F4AA
:10037C0040530B4303828389A98823F4B05323F0A1
:10038C000C031B041B0C0B43298987B00B43698995
:10039C000B439BB28381838A9BB223F44073134338
:1003AC00838201A8FFF780FF174A039B04999442AC
:1003BC0018BF19461922A3894A4313F4004F2B681E
:1003CC004FF0640514BF5B009B00B2FBF3F1B1FB73
:1003DC00F5F3A2891801120405FB13130BD5DA00EF
:1003EC003232B2FBF5F202F0070242EA00039BB292
:1003FC00238107B030BD1B013233B3FBF5F303F09F
:10040C000F030343F3E700BF00380140838921B198
:10041C009BB243F400538381704723F400531B04B5
:10042C001B0CF8E701F01F0310B5C1F342140121B6
:10043C00012C01FA03F105D10C3003683AB11943D0
:10044C00016010BD022C0CBF10301430F5E723EA0C
:10045C000101F5E7C1F30801818070478088C0F382
:10046C00080070470388194214BF01200020704710
:10047C004722F021074B00205A60074A82F82310CC
:10048C0000229A60072200211A60044BC3E9000184
:10049C00704700BF10E000E000ED00E050000020CD
:1004AC00074B1A6812B11A68013A1A600549D1E96A
:1004BC000023013243F10003C1E90023704700BF60
:1004CC004C000020500000204FF47A735843034B2B
:1004DC0018601A68002AFCD1704700BF4C0000203D
:1004EC00012170B50846FFF723FF01212848FFF7CB
:1004FC00ABFEFFF7BDFF00F051F84FF4FA70FFF7B9
:10050C00E3FF0A220021062000F0FEF84FF47A7077
:10051C00FFF7DAFF012000F043F90A20FFF7D4FFC0
:10052C0000F0D4F900F076F93220FFF7CDFF4FF44C
:10053C00165000F05BFA3220FFF7C6FF3220FFF7AF
:10054C00C3FF4FF4165000F0C3FA3220FFF7BCFF84
:10055C00104D114E002400F0F9F8A2B201210F2029
:10056C0000F0D2F8284600F00BFA00F069F9C82028
:10057C00FFF7AAFF304600F003FA013400F060F9EF
:10058C004FF44870FFF7A0FF132CE4D1E2E700BF53
:10059C0000023000600F0008680D000830B5012122
:1005AC0087B04FF48020FFF7CFFE01210820FFF722
:1005BC00BFFE00242723012568468DF800308DF8F6
:1005CC0001408DF802408DF80350FFF7B9FD4FF450
:1005DC008063ADF8043018238DF80730032301A98C
:1005EC001C488DF80630FFF7D9FD4FF40063ADF8C9
:1005FC000430042317480DEB03018DF80730FFF787
:10060C00CDFD4FF4165302930C2302A91248ADF8FA
:10061C001230ADF80C40ADF80E40ADF81040ADF80E
:10062C001440FFF79DFE29460B48FFF7EFFE2A46C4
:10063C0040F225510848FFF7F5FE20210648FFF748
:10064C0009FF054C40212046FFF70CFF0028F9D08C
:10065C0007B030BD000C0140004800400022084BA0
:10066C0008481A701978132901D91A70704719782B
:10067C00C9B2425419780131C9B21970F2E700BFFE
:10068C007904002058000020134810B503889B06FD
:10069C0020D5FFF7E3FE1149114AC0B20870137858
:1006AC000878104CDBB2C0B2E05413780133DBB2E3
:1006BC0013700B78EF2B06D01378132B0AD9BDE8E7
:1006CC001040FFF7CBBFE3783D2BF8D10122064B4E
:1006DC001A70F4E710BD00BF0048004078040020F9
:1006EC0079040020580000206C0000200123002019
:1006FC000449CA5C01331044072B80B2F9D1404243
:10070C0080B270471400002070B50E4CC9B2D2B242
:10071C00E0706171A271FFF7E9FF0025C0F30723B8
:10072C00094EC0B2E3712072615D3046FFF792FE54
:10073C0040213046FFF796FE0028F9D001350A2DEE
:10074C00F2D170BD140000200048004038B5104CA8
:10075C00104A23785BB2D15C2378FF295BB215D0A9
:10076C00092B13DC0C4D2B78012B0FD10B4B0F20CD
:10077C00197823785BB2D25CFFF7C6FF237801337C
:10078C005BB22370FFF76AFF00232B7038BD00BFEC
:10079C006D0000201F0000206C0000201E000020B7
:1007AC00014B1870704700BF1E00002070B50D463D
:1007BC00044620211648FFF745FD012D4FF040015E
:1007CC0013481ED1FFF73CFD0825114E23064FF0B0
:1007DC008001304618D5FFF733FD4FF480710C487B
:1007EC00FFF72EFD4FF480710948FFF72BFD6400D5
:1007FC00013DE4B2EAD1BDE8704020210448FFF786
:10080C001FBDFFF71FFDDFE7FFF71CFDE5E700BF8E
:10081C00000C014008B54FF4FC720021054800F0B3
:10082C0088FA0022044B1A6040F2F712034B1A604C
:10083C0008BD00BF74000020700000206C02002076
:10084C00F8B51F4C2368002B27DA002323601D4DBD
:10085C002B68002B27DA00232B60542623680021F9
:10086C0093FBF6F006FB103060F07F00C0B2FFF790
:10087C009DFF2068002190FBF6F040F04000C0B2D4
:10088C00FFF794FF104F26682B689E4211DD40F253
:10089C00F713236000232B60F8BDB3F5FC7FD6DB88
:1008AC0040F2F713D2E7B3F5FC7FD6DB40F2F71337
:1008BC00D2E7B85D0121FFF779FF0136E4E700BF0D
:1008CC00700000206C0200207400002037B501215C
:1008DC000820FFF72DFD4FF4FC731025ADF8043004
:1008EC000223264C01A920468DF806308DF80750BE
:1008FC00FFF754FC20460821FFF7A2FC29462046AE
:10090C00FFF79EFC20464021FFF79CFC204620214F
:10091C00FFF798FC20468021FFF794FC20464FF40B
:10092C008071FFF78FFC29462046FFF78BFC294688
:10093C002046FFF785FC20462021FFF781FC002193
:10094C002120FFF733FF0021C820FFF72FFF0021E4
:10095C000620FFF72BFF00211320FFF727FF0021B4
:10096C002020FFF723FF00210C20FFF71FFFFFF7CC
:10097C0051FFFFF765FF03B030BD00BF000C014015
:10098C0008B54FF4FC720146054800F0C7F9002287
:10099C00044B1A6040F2F712034B1A6008BD00BFFB
:1009AC0074000020700000206C02002030B5FA2486
:1009BC00D1F8FC20551C95FBF4F304FB1353D1F830
:1009CC000041DBB29C421CBF8854C1F8FC3030BDE6
:1009DC00044B1A88920604D598880349C0B2FFF7D5
:1009EC00E5BF70470038014070020020F0B50121CE
:1009FC0087B0074644F20400FFF79AFC0024012557
:100A0C00252368468DF800308DF801408DF80240A2
:100A1C008DF80350FFF794FB4FF40073ADF80430DE
:100A2C0018238DF807300323174E01A930468DF893
:100A3C000630FFF7B3FB4FF48063ADF804300423AA
:100A4C0030460DEB03018DF80730FFF7A7FB0C23A5
:100A5C00ADF80C40ADF80E40ADF81040ADF81440B8
:100A6C000A4C02A92046ADF812300297FFF778FC29
:100A7C0029462046FFF7CAFC2A4640F2255120465B
:100A8C00FFF7D0FC07B0F0BD000801400038014072
:100A9C0030B5FA24D1F8FC20551C95FBF4F304FB7B
:100AAC001353D1F80041DBB29C421CBF8854C1F8EF
:100ABC00FC3030BD044B1A88920604D59888034943
:100ACC00C0B2FFF7E5BF704700440040740300203C
:100ADC002DE9F041012186B080464FF40030FFF73C
:100AEC0033FC01210420FFF723FC002401252623DD
:100AFC0068468DF800308DF801408DF802408DF875
:100B0C000350FFF71DFB182304278DF80730032330
:100B1C00194E0DEB070130468DF80630ADF8047018
:100B2C00FFF73CFB08230DEB07013046ADF8043012
:100B3C008DF80770FFF732FB0C23ADF80C40ADF8C5
:100B4C000E40ADF81040ADF814400C4C02A92046F4
:100B5C00ADF81230CDF80880FFF702FC294620468C
:100B6C00FFF754FC2A4640F225512046FFF75AFC69
:100B7C0006B0BDE8F08100BF000801400044004011
:100B8C00DFF834D0002103E00C4B5B5843500431A8
:100B9C000B480C4B42189A42F6D30B4A02E0002346
:100BAC0042F8043B094B9A42F9D300F01BF800F0D1
:100BBC0091F8FFF795FC7047005000206011000879
:100BCC00000000202C000020300000207C040020BD
:100BDC00FEE77047FEE7FEE7FEE7FEE7704770476B
:100BEC0070470000374B82B01A6842F001021A605D
:100BFC005968354A0A405A601A6822F0847222F405
:100C0C0080321A601A6822F480221A605A6822F420
:100C1C00FE025A604FF41F029A6000220092019269
:100C2C001A6842F480321A601A6802F40032019297
:100C3C00009A01320092019A1AB9009AB2F5A06F8B
:100C4C00F2D11A6812F4003218BF01220192019AF3
:100C5C00012A05D04FF000621C4B9A6002B070471D
:100C6C001B4A116841F010011160116821F0030159
:100C7C001160116841F0020111605A685A605A689B
:100C8C005A605A6842F480625A605A6822F47C12A4
:100C9C005A605A6842F4E8125A601A6842F080723C
:100CAC001A601A689201FCD55A6822F003025A6045
:100CBC005A6842F002025A605A6802F00C02082A82
:100CCC00FAD1C7E7001002400000FFF800ED00E089
:100CDC000020024070B500250C4E0D4CA41BA41036
:100CEC00A54209D100F02EF800250A4E0A4CA41B8F
:100CFC00A410A54205D170BD56F825309847013592
:100D0C00EEE756F8253098470135F2E75811000800
:100D1C0058110008581100085C11000810B5431E4A
:100D2C000A44914200D110BD11F8014B03F8014F58
:100D3C00F7E703460244934200D1704703F8011BC6
:100D4C00F9E70000F8B500BFF8BC08BC9E46704738
:0C0D5C00F8B500BFF8BC08BC9E4670470C
:100D6800000000000000000000000000000000007B
:100D7800000000000000000000000000000000006B
:100D8800000000000000000000000000000000005B
:100D980000000000000000000000008080808080CB
:100DA800000000000000000000000000000000003B
:100DB800000000000000000000000000000080E0CB
:100DC800F8FCFCFE3E3F1F1F1F1F3F3E7EFCFCF849
:100DD800F08000000000000000000000000000009B
:100DE8000000000000000000C0F8FCFEFE3F1F1FCE
:100DF8000F0F0F0F1F3FFEFEFCF8C00000000000A1
:100E080000000000000000000000000000000000DA
:100E180000000F3F7FFFFFF8F0F0E0E0E0E0F0F0C7
:100E2800F8FFFF7F3F0F00000000000000000000F7
:100E3800000000000000000000000000071F3F7FC6
:100E4800FFFCF8F8F0F0F0F0F8FCFF7F3F1F070018
:100E5800000000000000000000000000000000008A
:100E6800000000000000000000000001010303036F
:100E7800030303010100000000000000000000005F
:100E8800000000000000000000000000000000005A
:100E98000000000000000101010101010100000043
:100EA800000000000000000000000000000000003A
:100EB800000000000000000000000000000000002A
:100EC8000000000000000000E0F0F0F0F0F0F0F0AA
:100ED800F0F0F0F0F0F0F0F0F0F0F0F0F0F0F0F00A
:100EE800F0F0F0F0F0F0F0F0F0E0000000000000AA
:100EF80000000000000000000000000000000000EA
:100F080000000000000000000000000000000000D9
:100F180000000000000000000000000000010101C6
:100F280001010101010101010101010101010101A9
:100F3800010101010101010101010101010000009C
:100F48000000000000000000000000000000000099
:100F58000000000000000000000000000000000089
:100F68000000000000000000000000000000000079
:100F78000000000000000000000000000000000069
:100F88000000000000000000000000000000000059
:100F980000000080808080800000000000000000C9
:100FA8000000000000000000000000000000000039
:100FB80000000000000080E0F8FCFCFE3E3F1F1F20
:100FC8001F1F3F3E7EFCFCF8F08000000000000080
:100FD8000000000000000000000000000000000009
:100FE800C0F8FCFEFE3F1F1F0F0F0F0F1F3FFEFE36
:100FF800FCF8C00000000000000000000000000035
:10100800000000000000000000000F3F7FFFFFF815
:10101800F0F0E0E0E0E0F0F0F8FFFF7F3F0F0000C5
:1010280000000000000000000000000000000000B8
:1010380000000000071F3F7FFFFCF8F8F0F0F0F019
:10104800F8FCFF7F3F1F07000000000000000000C1
:101058000000000000000000000000000000000088
:101068000000000101030303030303010100000062
:101078000000000000000000000000000000000068
:101088000000000000000000000000000000010156
:101098000101010101000000000000000000000043
:1010A8000000000000000000000000000000000038
:1010B800000000000000000000000000000000C068
:1010C800E0F0F0F0F0F0F0F0F0F0F0F0F0F0F0F028
:1010D800F0F0F0F0F0F0F0F0F0F0F0F0F0F0F0F008
:1010E800F0E0000000000000000000000000000028
:1010F80000000000000000000000000000000000E8
:1011080000000000000000000000000000000000D7
:1011180000000001070F3FFFFFFFF9F9F9F9F9F99E
:10112800F9F9F9F9F9F9F9F9F9F9F9F9F9F9F9FD23
:10113800FFFF7F1F07010000000000000000000003
:101148000000000000000000000000000000000097
:041158003101000859
:04115C000D01000879
:101160000204060800000000010203040102030457
:10117000060708097EFF06000100000000EF01FFDE
:0C118000FFFFFFFFFFFFFFFFFF0000006C
:0400000508000B8D57
:00000001FF
